:0F143F00CDA8B5C025643A25665620000D0A00D9
:10142B0075985075D7E075D6FE758E14438E01D224
:04143B00ACD2AF225E
:091476002009FDEFD209F59922CD
:101396008B408A418942AB40AA41A942120CC860DF
:1013A600130542E5427002054114F9120CC8FF12FA
:0513B600147680E22224
:0300230002145D67
:0D145D00309802C298309904C299C2093239
:1013BB00E4FDFCC3ED9FEC9E5015E4FBFA0BBB0068
:0F13CB00010ABA04F8BB32F50DBD00010C80E435
:0113DA0022F0
:1012A100E4F522F52312142B12147F7F327E0012F3
:1012B10013BB121334E4F522F523AF23EFC454F02A
:1012C1004408FF1211FC8F278E268D258C24EC12E9
:1012D10009067BCA7A97791F78351208008F2B8E01
:1012E1002A8D298C287543FF75441475453F852245
:1012F100468523478F4B8E4A8D498C487B007A0067
:10130100792C120DE97B007A00792C1213960523B2
:10131100E52370020522C39408E5229400409B7BDB
:10132100FF7A14794B1213967F0A7E001213BBB217
:03133100CD8082EA
:09147F00E4F59175924CD296221D
:0E144E00E4FFFE0FBF00010EEF64964E70F536
:01145C00226D
:10141200E4FEEF30E704D2938002C293D292EF252A
:08142200E0FFC2920EBE08EAD1
:01142A00229F
:1013DB00E4FDFCD29212144EED25E0FDC292309446
:0B13EB00010D12144E0CBC08EAAF0507
:0113F60022D4
:1013F700C2962095FDEF540F4450FF121412E4FFDC
:0B140700121412AF05121412D296222C
:101334002095FDC2967FF01214122095FDD2967D61
:1013440006E4FF1213F7E4FD7F021213F77D237FF7
:10135400031213F7E4FD7F041213F72095FDC296E0
:0B1364007FF01214122095FDD296229B
:0211FC00AB073F
:1011FE00E4F543F542F541F540F547F546F545F57D
:10120E00442095FDAD037F011213F7C2967FFC12A9
:10121E001412E4FF1214127F01121412E4FBAF43F6
:10122E00AE42AD41AC407808120D448F438E428DD4
:10123E00418C401213DBE48F47F546F545F544E546
:10124E00434FF543E5424546F542E5414545F541F7
:10125E00E5404544F5400BBB03C4D2967FFF7EFFAD
:10126E007D7F7C00AB43AA42A941A840D3120D2E2C
:10127E004018E5439400F543E5429400F542E541FC
:10128E009400F541E5409401F540AF43AE42AD41C7
:02129E00AC4062
:0112A000222B
:10080000EC4D6011E8497017ED33EC3304600DE4F2
:10081000FCFFFEFD22E933E8330470F80209791287
:10082000094458046009E4CC248150062850090288
:100830000983284003020980C0E0EB4A7044B98074
:1008400006D0E0FB02096FEF4E701CBD8008EBFF85
:10085000EAFEE9FD80EBE98DF0A4FEE5F00208E98F
:10086000E9CDF9EAFEEBFFEF89F0A4FCE5F0CE89D3
:10087000F0A42EFFE435F0CD89F0A42DFEE435F090
:100880008067EF4E7005BD80D780C3EF8BF0A4ACBE
:10089000F0EE8BF0A42CFCE435F0F8EF8AF0A42CF9
:1008A000E5F038FCE433CB8DF0A42CFCE5F03BF80C
:1008B000EE8AF0A42CFCE5F038F8E433CF89F0A4FC
:1008C0002CFCE5F038CF3400CE89F0A42FFFE5F002
:1008D0003EFEE433C98DF0A42EFEE5F039CD8AF05A
:1008E000A42FFFE5F03EFEE43DFD33D0E0FB5007D2
:1008F0000BBB000F020983EC2CFCEF33FFEE33FE41
:06090000ED33FD02095B6E
:1009060075F020800E75F010800575F0087D007E6C
:10091600007F003392D530D503120D20EC33401002
:10092600EF33FFEE33FEED33FDEC33FCD5F0ED2275
:0E093600E5F0247EA2D513CC92E7CDCEFF22B1
:100D8D00E5572443F8E605572278403007027843AB
:100D9D00E475F001120D57020CC82000EB7F2ED226
:100DAD00008018EF540F2490D43440D4FF30040B3E
:100DBD00EF24BFB41A0050032461FFE558600215FB
:100DCD0058055BE55B7002055A30070D7840E475F8
:100DDD00F001120D57EF020D0E02136F7403D207BF
:100DED008003E4C207F5578B408A418942E4F558E8
:100DFD00F55AF55BE55860077F20120DC880F57533
:100E0D0059FFC201C200C202C203C205C206C20816
:100E1D00120D96FF700D3007057F00120DD9AF5BD7
:100E2D00AE5A22B4255FC2D5C204120D96FF24D04E
:100E3D00B40A00501A75F00A785830D50508B6FF77
:100E4D000106C6A426F620D5047002D20380D9244B
:100E5D00CFB41A00EF5004C2E5D2040210C6D2017D
:100E6D0080C6D20080C0D20280BCD2D580BAD20555
:100E7D0080B47F20120DC82002077401B5580040C0
:100E8D00F1120D8DFF120DC8020E01D208D206808F
:100E9D0095120D8DFB120D8DFA120D8DF94A4B70B9
:100EAD000679BD7A117BFF20022EE558602A7E005F
:100EBD008E82758300120CE160060EEE655970F09E
:100ECD00C2D5EBC0E0EAC0E0E9C0E0EE121126D0D9
:100EDD00E0F9D0E0FAD0E0FB120CC8FF60AAEBC03D
:100EED00E0EAC0E0E9C0E0120DC8D0E02401F9D07D
:100EFD00E03400FAD0E0FBE5590460DCD559D98027
:100F0D0087D20280A212110960F7E559700104120F
:100F1D00098EA959600DE559600914F5591211B0E2
:100F2D00EF60F3EA30E702F404C3995077EAF42551
:100F3D00590430E701E404F559800D12110960C11F
:100F4D00EA0559255912098EEA7856F630E701E47B
:100F5D00255904D5590420050114121126E4C0E0C9
:100F6D001211B07856E6601320E70714F6120DB093
:100F7D00802204F6D0E014C0E07F00120DB0E559D8
:100F8D006007120DA71559800B300503120DA7D060
:100F9D00E0020E01D0E00480C512110960A0E559F0
:100FAD000412098E7856EAF6E5592005026001040F
:050FBD002404121126BE
:100FC20074FF04C0E01211B0120DB0E55920050201
:100FD2006003120DA7D0E0B559E87F45120DBA782B
:100FE20056E67F2B30E7047F2DF404C0E0120DC8D3
:100FF200D0E075F00A84C0F0120DB1D0E0120DB14C
:10100200020E01791080027908C206C2088008D255
:10101200D5790A8004790AC2D5E559047002F559D6
:10102200E4FAFDFEFF120D8DFC7B08200113120D68
:101032008DFD7B1030000A120D8DFE120D8DFF7B8F
:1010420020EC3382D592D55013C3E43000069FFFC3
:10105200E49EFEE42001039DFDE49CFCE4CBF8C287
:1010620001EC700CCFCECDCCE824F8F870F38017E9
:10107200C3EF33FFEE33FEED33FDEC33FCEB33FB1A
:10108200994002FB0FD8E9EB300105F8D0E0C448E3
:10109200B201C0E00AEC4D4E4F78207B0070C2EAEC
:1010A200B5590040BCC0E0121128D0F0D0E02001B8
:1010B20004C4C0E0C4B201C0F0120DB1D0F0D5F04A
:1010C200EB020E01120D670E9E531005580E6F4C67
:1010D2000E6B4210094F1011441011490E84431037
:1010E20017550F48460FA6450F124711DD500E73D4
:1010F2002D0E772E0E9A2B0E7B230E982011C62AC8
:101102000E334800000E92E559B4FF0375590612DA
:101112000D8DFC120D8DFD120D8DFE120D8DFF78C1
:101122004F0209BD790AA2D5200314300509B9106E
:10113200020404B9080104A2D520060250010420C9
:1011420002689202B558005034C0E07F2030031983
:101152007F30A20272067205500F12117FC202C2C4
:1011620006C205C2087F30800F300503E9C0E012D5
:101172000DC8300503D0E0F9D0E0B558CC300517E2
:101182007F30B9100C120DC87F583004077F788069
:1011920003B90803120DC83002057F2D020DC87F66
:1011A200202008F87F2B2006F322920280CF7F00B6
:1011B200B407005005244FF8E6FF22286E756C6CC8
:1011C2002900D201120D8D3001F8C201785830D5B4
:1011D2000108F6020E332D50434958120D8D240397
:1011E200B405004001E49011D893120DB9743A127B
:0A11F2000DB9D20375580402100570
:10094400E9D2E7C933E833F892D5EDD2E7CD33ECF9
:0709540033FC5002B2D52272
:10095B00EC30E7100FBF000C0EBE00080DBD0004FD
:10096B000BEB6014A2D5EB13FCED92E7FD2274FFA9
:10097B00FCFDFEFF22E480F8A2D574FF13FC7D8002
:03098B00E480EF16
:10098E00F920E72824F950037907E4F42402FB1830
:10099E00DBFDE624FB5014E9600DE4F618E604F6E0
:0F09AE00B40A08E4F6D9F57401F60A22C2D5227C
:1009BD00ED33EC3392D5FA602AB4FF33EDC2E77B09
:1009CD00FF60067A0979E2E4227A0979EB20D504F1
:1009DD007A0979E6224E614E002B494E46002D498B
:1009ED004E4600E47A08F608DAFC7B00740722E82C
:1009FD00C0E0ECC0E0EDC0E0EEC0E0EFC0E0EA75B5
:100A0D00F010A4CAABF075F04DA42BFBE435F0FC4F
:100A1D00EA2410FAEB34C5FBEC34D9FCEDC2E7FF48
:100A2D0075F056A4F42411C5F0F434C58FF0A42A42
:100A3D00E5F03BE43CF620E714120C88D0E0FFD043
:100A4D00E0FED0E0FDD0E0FC120BBB8014F40412EC
:100A5D000C88D0E0FFD0E0FED0E0FDD0E0FC120825
:100A6D0000D0E0F8E6FAEDD2E7CD33EC332482FB8B
:100A7D00E4C3CF33CFCE33CECD33CD33DBF37B07D2
:100A8D0075F00A846004F6081B0AE5F0F6088FF08D
:100A9D00740AA4FFACF08EF0740AA42CFEACF050D6
:100AAD00010C8DF0740AA42CFDE435F0F608DBDEA4
:030ABD0074072299
:100AC000020979E86480F8E933E83360110460F0E2
:100AD000ED33EC337009E8FCE9FDEAFEEBFF22049C
:100AE00060DED3EB9FEA9EE99DE8C2E78CF0C2F797
:100AF00095F0400CE8CCF8E9CDF9EACEFAEBCFFB63
:100B000012094485D0F05804700320D5B3E804706E
:100B1000075002B2D502098392D5EC0460F7E4CC09
:100B2000C0E0C398F8603B94186008400DD0E0FB2B
:100B300002095BE4FBFAC9FC8028E830E406E4C95A
:100B4000FBE4CAFCE830E305E4C9CACBFCE854077F
:100B50006010F8C3E913F9EA13FAEB13FBEC13FC8A
:100B6000D8F130F52FC3E49CFCEF9BFFEE9AFEED2D
:100B700099FDD0E0FBEF4E4D4C701222DB030209D1
:100B800080EC2CFCEF33FFEE33FEED33FDED30E770
:100B9000EB02095BEF2BFFEE3AFEED39FDD0E0FBF7
:100BA00050130BBB0003020983ED13FDEE13FEEFA0
:080BB00013FFEC13FC02095BCA
:100BB800020983EC5D046005E859047003020979B1
:100BC800120944580460F6EC4860F2EC7004FDFE2B
:100BD800FF22C860DB2481C85009C3986002500610
:100BE8000209809850CAF582E9294B4A7005AB8200
:100BF80002096F75F0007C1A7880C3EF9BEE9AEDBE
:100C080099400DC3EF9BFFEE9AFEED99FDE842F087
:100C1800DC23ACF0D0E0FFD0E0FED0E0FDAB8220DA
:100C2800E7101BEB60BAEC2CFCEF33FFEE33FEED64
:100C380033FD02095BE803F830E705C0F075F00002
:100C4800EF2FFFEE33FEED33FD40B830E7C280AA48
:100C58003F8000004120000042C80000447A0000A4
:100C6800461C400047C35000497424004B18968026
:100C78004CBEBC205A0E1BCA6753C21C749DC5AE1D
:100C8800FB60065407601C2323120CB6EB54386033
:100C980009120CA2120CB1120800ECF8EDF9EEFAE8
:100CA800EFCB22EB120CB180F1543803241C900CCA
:100CB80058FE93FC0EEE93FD0EEE930ECE93FF229C
:0300000002146A7D
:0C146A00787FE4F6D8FD75815B0212A1CA
:100CC800BB010689828A83E0225002E722BBFE022A
:090CD800E32289828A83E493225D
:100CE100BB010CE58229F582E5833AF583E02250C8
:100CF10006E92582F8E622BBFE06E92582F8E22212
:0D0D0100E58229F582E5833AF583E493222B
:100D0E00BB010689828A83F0225002F722BBFE01C4
:020D1E00F322BE
:0E0D2000C3E49FFFE49EFEE49DFDE49CFC22E4
:100D2E00EB9FF5F0EA9E42F0E99D42F0EC6480C83C
:060D3E0064809845F022DC
:100D4400E8600FEFC333FFEE33FEED33FDEC33FC0D
:030D5400D8F122B1
:100D5700FAE6FB0808E6F925F0F618E6CA3AF6229D
:100D6700D083D082F8E4937012740193700DA3A31B
:100D770093F8740193F5828883E47374029368602F
:060D8700EFA3A3A380DF2F
:10136F00EFB40A07740D12137A740A309811A89902
:10137F00B8130CC2983098FDA899C298B811F630DE
:07138F0099FDC299F59922B6
:00000001FF
