:020000040800F2
:1000000098060020B11000085102000853020008B1
:10001000570200085B0200085F02000800000000B1
:100020000000000000000000000000006302000863
:10003000650200080000000067020008690200086D
:10004000CB100008CB100008CB100008CB10000824
:10005000CB100008CB100008CB100008CB10000814
:10006000CB100008CB100008CB100008CB10000804
:10007000CB100008CB100008CB100008CB100008F4
:10008000CB100008CB100008CB100008CB100008E4
:10009000CB100008CB100008CB100008CB100008D4
:1000A000CB100008CB100008CB100008CB100008C4
:1000B000CB100008CB100008CB100008CB100008B4
:1000C000CB100008CB100008CB100008CB100008A4
:1000D000CB1000086B020008CB100008CB10000802
:1000E000CB100008CB100008CB10000800F002F87D
:1000F00000F049F80AA090E8000C82448344AAF179
:100100000107DA4501D100F03EF8AFF2090EBAE876
:100110000F0013F0010F18BFFB1A43F0010318473B
:100120005428000074280000103A24BF78C878C111
:10013000FAD8520724BF30C830C144BF04680C60ED
:10014000704700000023002400250026103A28BF35
:1001500078C1FBD8520728BF30C148BF0B60704739
:10016000662902F0BA83002070471FB502F0A9FB90
:1001700001F070FC04000020002102F0D5F9E060DD
:100180001FBD10B510BD01F08DFD1146FFF7EDFF4D
:1001900000F008F801F0ABFD03B4FFF7F2FF03BC79
:1001A00000F07CF84FF0000800F070F94FF4E131F6
:1001B0001E4800F0CFF801F07FF8322000F094F8EC
:1001C00001F013F930E01A48006808B9012000E096
:1001D0000020184908604FF000081FE0082141EA9C
:1001E0000811C8B201F045F98246504602F0E3F921
:1001F0000446114A114B02F0F5F9064602F0AAF93D
:100200008146484602F0ECFA044602460B460CA032
:1002100001F068F908F1010000F0FF08B8F1080FDB
:10022000DCDB0AA001F05EF9CDE7000000380140F8
:100230000481214284812142A05C25E8C710A43EAC
:1002400020252E3466562020000000000D0A0000F4
:10025000704700BFFEE700BFFEE700BFFEE700BF3C
:10026000FEE770477047704770470848008810F0F5
:10027000200F09D000200649087006480088087041
:100280004FF0010004490870704700000038014039
:10029000010000200438014000000020014600BF9A
:1002A000704770B504460D4600BF40214D4800F030
:1002B000A6FE0028F9D0E1B24A4800F032FE2046FE
:1002C00070BD4FF0E020006920F004004FF0E02105
:1002D0000861092044490870084600784FF47A7193
:1002E00048434249088070470146404A12884A43C1
:1002F0004FF0E0235A6100229A6101221A6100BF87
:100300004FF0E022106910F0010F02D010F4803F8E
:10031000F6D000224FF0E0231A619A61704701463F
:10032000314A12784A434FF0E0235A6100229A6121
:1003300001221A6100BF4FF0E022106910F0010F96
:1003400002D010F4803FF6D000224FF0E0231A6173
:100350009A6170477FB505460C4600940020ADF8C1
:100360000400ADF80600ADF80800ADF80C000C2054
:10037000ADF80A006946284600F0D7FC012240F299
:100380002551284600F069FD0121284600F059FD5D
:100390008021284600F040FE7FBD70B505460C4622
:1003A0002146284600F0BDFD00BF8021284600F010
:1003B00026FE0028F9D0204670BD70B505460C46D3
:1003C0000BE014F8011B284600F0ABFD00BF8021B4
:1003D000284600F014FE0028F9D020780028F0D13B
:1003E00070BD00000038014004000020060000201D
:1003F00010B501210C2000F0EAFB0121084600F0B5
:10040000E6FB0121880300F0E2FB10BD08B50121E5
:10041000234800F0F8F90320ADF8000001208DF822
:10042000020010208DF8030069461E4800F01CF9F8
:100430004FF48060ADF8000004208DF80300694699
:10044000194800F011F94FF40070ADF800000320D6
:100450008DF8020018208DF803006946124800F05C
:1004600003F908BD08B525208DF8000000208DF89F
:10047000020001208DF80300684600F01EF80122FA
:1004800040F22551094800F0E8FC08BD10B5FFF71F
:10049000AFFFFFF7BBFFFFF7E5FFFFF712FF10BD50
:1004A00000023000000C014000080140003801400B
:1004B00036490143364A1160704770B50021002368
:1004C0000F22C4784CB3324C246804F4E064C4F5C1
:1004D000E0644FEA1421C1F1040322FA01F24478E6
:1004E00004FA03F1847804EA020444EA01014FEAC1
:1004F0000111284C0678A155047804F01F054FF02F
:10050000010404FA05F405784FEA65154FF0E0267A
:1005100006EB8505C5F8004109E0047804F01F05E5
:100520000124AC401C4D0678761145F8264070BD7C
:100530001A4A0A4002431A4B1A60704741B1194ADD
:10054000126842EA00024FF0E023C3F8102D07E0E2
:10055000144A126822EA00024FF0E023C3F8102D7B
:100560007047042808D14FF0E021096941F00401E7
:100570004FF0E022116107E04FF0E021096921F01E
:1005800004014FF0E0221161704700000000FA05FD
:100590000CED00E000E400E080E100E080FFFF1FE0
:1005A00008ED00E010ED00E010B50446CA488442B2
:1005B00008D10121042000F024FB0021042000F0D8
:1005C00020FB46E0C548844208D10121082000F004
:1005D00018FB0021082000F014FB3AE0C0488442D8
:1005E00008D10121102000F00CFB0021102000F0A8
:1005F00008FB2EE0BB48844208D10121202000F0F6
:1006000000FB0021202000F0FCFA22E0B6488442E2
:1006100008D10121402000F0F4FA0021402000F030
:10062000F0FA16E0B148844208D10121802000F0A0
:10063000E8FA0021802000F0E4FA0AE0AC488442A5
:1006400007D10121801500F0DCFA0021A01500F08F
:10065000D8FA10BD10B50121084600F0D2FA0021E9
:10066000012000F0CEFA10BD2DE9F0410246002530
:100670000026002000230024002791F803C00CF07E
:100680000F0591F803C01CF0100F03D091F802C0C1
:100690004CEA0505B1F800C01CF0FF0F31D014681A
:1006A00000202BE04FF0010C0CFA00F3B1F800C071
:1006B0000CEA03069E4220D183004FF00F0C0CFA87
:1006C00003F7BC4305FA03FC4CEA040491F803C0A9
:1006D000BCF1280F06D14FF0010C0CFA00FCC2F857
:1006E00014C00AE091F803C0BCF1480F05D14FF0E7
:1006F000010C0CFA00FCC2F810C0401C0828D1D331
:100700001460B1F800C0BCF1FF0F34DD5468002064
:100710002EE000F1080C4FF0010808FA0CF3B1F8D4
:1007200000C00CEA03069E4221D183004FF00F0C5B
:100730000CFA03F7BC4305FA03FC4CEA040491F8F5
:1007400003C0BCF1280F05D100F1080C08FA0CF821
:10075000C2F8148091F803C0BCF1480F07D100F132
:10076000080C4FF0010808FA0CF8C2F81080401C81
:100770000828CED35460BDE8F0814FF6FF710180A8
:10078000022181700421C1707047024600209368E5
:100790000B4201D0012000E000207047014688682C
:1007A00080B2704702460020D3680B4201D001207E
:1007B00000E0002070470146C86880B270470161C0
:1007C0007047416170470AB1016100E041617047C3
:1007D000C16070474FF480320A4382618161826157
:1007E00082698269704702460020424B18684FF6C2
:1007F0008073184040EA021008433E4B186070476F
:100800003D49C8617047F0B50A4600230024002125
:10081000002500F00046B6F1004F02D1354EF169D7
:1008200001E0344E7168C0F3034583B200F4401612
:10083000B6F5401F08D121F070612E4E766826F083
:1008400070662C4F7E6012E000F48016B6F5801FB3
:1008500006D1032606FA05F4A14341F0706106E0D3
:10086000460D360103FA06F6B14341F0706122B13C
:10087000460D360103FA06F6314300F00046B6F1A4
:10088000004F02D11B4EF16101E01A4E7160F0BDC4
:1008900030B500228B071C0F0F2303FA04F2154B0F
:1008A00008338C1053F824309343124C08348D10C5
:1008B00044F8253023468C1053F824308C07240F3D
:1008C00000FA04F423430B4C08348D1044F825300F
:1008D00030BD0A490860704700080140000C014023
:1008E000001001400014014000180140001C0140AC
:1008F000002001400000014000002042DC002042B6
:10090000DB48006840F00100D949086008464068AB
:10091000D8490840D649486008460068D64908408A
:10092000D34908600846006820F480200860084623
:10093000406820F4FE0048604FF41F008860704754
:10094000CB49096821F48031C94A11601146096810
:1009500021F480211160B0F5803F03D0B0F5802FE5
:100960000ED106E0C249096841F48031C04A1160E5
:1009700007E0BF49096841F4A021BD4A116000E0C9
:1009800000BF00BF704710B50146002200230020C1
:100990004A11012A02D1B64C236806E0022A02D18C
:1009A000B34C236A01E0B24C636A01F01F020124D8
:1009B00094401C4201D0012000E0002010BD70B521
:1009C00000240025002600BF3120FFF7DCFF06468B
:1009D000641CB4F5A06F01D0002EF5D03120FFF7D4
:1009E000D2FF08B1012500E00025284670BD014670
:1009F00000209F4A106820F0F80040EAC100106013
:100A000070479E490860704702460020984B58681E
:100A100020F47C1042EA01031843954B586070475C
:100A200096490866704701460020914A506820F0B8
:100A300003000843506070478D48406800F00C0088
:100A40007047014600208A4A506820F0F0000843B1
:100A50005060704701460020854A506820F4E060ED
:100A600008435060704701460020814A506820F4D6
:100A7000605040EAC1005060704729B17C4A527A08
:100A800002437B4B5A7206E0794A527AC343DBB287
:100A90001A40774B5A72704779490860704701468F
:100AA0000020734A506820F440400843506070476B
:100AB0000021744A11706E4A82F82010012802D079
:100AC000042808D103E001216E4A117004E00521D9
:100AD0006C4A117000E000BF00BF70476A490860AF
:100AE00070476349096A0143614A11627047674967
:100AF0000860704730B500210022002400235C4DBF
:100B00006D6805F00C0121B1042905D0082923D115
:100B100005E05F4D056022E05D4D05601FE0544D2E
:100B20006D6805F47012524D6D6805F4803402252D
:100B300005EB92421CB9574D554305600BE04C4DF7
:100B40006D6815F4003F03D0524D5543056002E037
:100B50004F4D5543056002E04D4D056000BF00BF9D
:100B6000434D6D6805F0F00109094B4D6B5C05685C
:100B7000DD4045603E4D6D6805F4E061090A464D73
:100B80006B5C4568DD408560394D6D6805F46051EA
:100B9000C90A414D6B5C4568DD40C560344D6D68E8
:100BA00005F44041890B3D4D6B5CC568B5FBF3F521
:100BB000056130BD29B12E4A526902432C4B5A615E
:100BC00004E02B4A52698243294B5A61704729B18C
:100BD000274A92690243264B9A6104E0244A9269AB
:100BE0008243234B9A61704729B1214AD26902435B
:100BF0001F4BDA6104E01E4AD26982431C4BDA6162
:100C0000704729B11A4AD2680243194BDA6004E0EE
:100C1000174AD2688243164BDA60704729B1144AEA
:100C200012690243124B1A6104E0114A12698243AD
:100C30000F4B1A6170471A49086070470F49C86422
:100C400070470B49C87170470948406A40F080708E
:100C500007494862704701460020054A92680A42E7
:100C600001D0012000E000207047014988727047E0
:100C7000001002400000FFF8FFFFF6FE00004242B5
:100C8000D800424220100240800442423C044242CA
:100C900000127A0000093D000C0000201C0000201A
:100CA0004004424210B50446FC48844209D1012167
:100CB0008803FFF7A6FF00214FF48040FFF7A1FF54
:100CC00032E0F748844209D101214804FFF7A6FF2A
:100CD00000214FF40030FFF7A1FF25E0F1488442E6
:100CE00009D101218804FFF799FF00214FF48020EA
:100CF000FFF794FF18E0EC48844209D10121C804B1
:100D0000FFF78CFF00214FF40020FFF787FF0BE077
:100D1000E648844208D101210805FFF77FFF002142
:100D20004FF48010FFF77AFF10BD2DE9F04786B031
:100D300005460E460024A24600BFA1460027B08902
:100D400000B100BF2F462C8A4CF6FF700440F0889B
:100D500004432C82AC894EF6F3100440B0883189EC
:100D60000843718908430443AC81AC8A4FF6FF40C5
:100D70000440B0890443AC8201A8FFF7BBFEC7481A
:100D8000874202D1DDF810A001E0DDF80CA0A889AF
:100D900010F4004F08D00AEBCA0000EB0A103168CB
:100DA0004900B0FBF1F807E00AEBCA0000EB0A10BB
:100DB00031688900B0FBF1F86420B8FBF0F0040161
:100DC0002009642101FB1089A88910F4004F08D084
:100DD000322000EBC900B0FBF1F000F00700044343
:100DE00008E0322000EB09106421B0FBF1F000F0C4
:100DF0000F0004432C8106B0BDE8F0874FF4165174
:100E0000016000218180C18001810C21418100218C
:100E10008181704710B502460020108A4FF2FF030F
:100E200018400B884C8823438C882343CC88234369
:100E30001843108210BD0021018041808180C18053
:100E4000704721B1828942F40052828104E0828994
:100E50004DF6FF731A4082817047F0B503460024B7
:100E6000002600250020A1F510676A3F00D100BFD1
:100E70001846C1F3421401F01F06012707FA06F5D0
:100E8000012C01D10C3004E0022C01D1103000E023
:100E900014301AB107682F43076002E00768AF43B8
:100EA0000760F0BD10B51AB1838A0B43838204E05A
:100EB000838ACC43A4B22340838210BD028A4FF6BA
:100EC000F0731A400282028A0A43028270478289C2
:100ED0004FF2FF731A40828182890A4382817047F0
:100EE00021B1828942F00202828104E082894FF6B8
:100EF000FD731A4082817047028A4FF6DF731A40F1
:100F00000282028A0A430282704721B1028A42F4B5
:100F10008042028204E0028A4BF6FF731A4002828A
:100F20007047C1F308028280704701468888C0F389
:100F300008007047818941F0010181817047028B6F
:100F4000D2B20283028B42EA012202837047028BF3
:100F500002F47F420283028B0A430283704721B16D
:100F6000828A42F02002828204E0828A4FF6DF7396
:100F70001A408282704721B1828A42F01002828236
:100F800004E0828A4FF6EF731A408282704721B1E3
:100F9000828A42F00802828204E0828A4FF6F77366
:100FA0001A408282704721B1828942F400428281D4
:100FB00003E08289C2F30E028281704721B1828AE6
:100FC00042F40062828204E0828A4FF2FF731A4088
:100FD00082827047828A4FF6FB731A408282828A2D
:100FE0000A438282704721B1828A42F002028282E1
:100FF00004E0828A4FF6FD731A40828270470246EF
:101000000020B1F5007F00D100BF13880B4201D052
:10101000012000E00020704701F40072B2F5007F6B
:1010200000D100BFCA430280704770B50246002459
:10103000002300250020A1F510666A3E00D100BF04
:10104000C1F3421501F01F03012606FA03F3012D37
:1010500002D19689334006E0022D02D1168A334030
:1010600001E0968A33400C12012606FA04F4168831
:10107000344013B10CB1012000E0002070BD10B568
:1010800000220023A1F510646A3C00D100BF0A12BF
:1010900001249440A3B2DC43048010BD0038014019
:1010A0000044004000480040004C00400050004018
:1010B0000948804709480047FEE7FEE7FEE7FEE7EC
:1010C000FEE7FEE7FEE7FEE7FEE7FEE70448054928
:1010D000054A064B70470000B9110008ED000008F2
:1010E0009800002098060020980200209802002016
:1010F00000210020674A126842F48032654B1A6072
:1011000000BF644A126802F40030491C10B9B1F5FE
:10111000A06FF6D15F4A126812F4003F01D001209F
:1011200000E00020012842D15B4A126842F0100220
:10113000594B1A601A46126822F003021A601A46C6
:10114000126842F002021A60524A5268514B5A60C9
:101150001A4652685A601A46526842F480625A60CF
:101160001A46526822F47C125A601A46526842F4B7
:10117000E8125A601A46126842F080721A6000BF84
:10118000444A126812F0007FFAD0424A526822F0B4
:101190000302404B5A601A46526842F002025A60FB
:1011A00000BF3C4A526802F00C02082AF9D170478D
:1011B00010B5FFF79DFF10BD10B53648006840F030
:1011C0000100344908600846406834490840314904
:1011D000486008460068324908402E4908600846C1
:1011E000006820F4802008600846406820F4FE0073
:1011F00048604FF41F008860FFF7DAFF4FF000608F
:101200002849086010BD10B5002100200022214BA4
:101210005B6803F00C0121B1042906D0082928D10C
:1012200007E0214B214C236027E01F4B1F4C23601C
:1012300023E0184B5B6803F47010164B5B6803F4F3
:101240008032022303EB904022B9194B4343174CE1
:1012500023600DE00F4B5B6813F4003F04D0144B88
:101260004343124C236003E00F4B43430F4C236076
:1012700003E00D4B0D4C236000BF00BF054B5B68C6
:10128000C3F303130B4CE15C084B1B68CB40074CCA
:10129000236010BD00100240002002400000FFF853
:1012A000FFFFF6FE08ED00E000127A0020000020AB
:1012B00000093D002400002008B501210820FFF7A7
:1012C00086FC4FF44050ADF8000048208DF8030034
:1012D00069468148FFF7C8F94FF400617E48FFF77F
:1012E0006EFA4FF44840ADF8000003208DF802007C
:1012F00010208DF8030069467748FFF7B5F908BD5F
:10130000002001E0411C88B20F28FBDB704770B55C
:101310000446FFF7F5FFFFF7F3FF00251FE014F089
:10132000800F05D04FF480416B48FFF748FA04E086
:101330004FF480416848FFF744FA4FF40041664893
:10134000FFF73DFAFFF7DCFF6006040E4FF40041A3
:101350006148FFF736FAFFF7D3FF681CC5B2082DC6
:10136000DDDB70BD70B50024FFF7CAFF002518E073
:101370004FF400415848FFF722FAFFF7C1FF60061B
:10138000040E4FF400415448FFF71BFA534800681D
:1013900010F4005F01D0601CC4B2FFF7B1FF681CFD
:1013A000C5B2082DE4DB204670BD70B504460D467D
:1013B0004FF400614848FFF704FA00BF474800684F
:1013C00010F4805FFAD104F00F0141F05000FFF7F4
:1013D0009EFF0020FFF79BFF2846FFF798FF4FF482
:1013E00000613D48FFF7EBF970BD10B500BF3B4809
:1013F000006810F4805FFAD14FF400613648FFF7BF
:10140000E0F9F020FFF783FF00BF3448006810F4D4
:10141000805FFAD14FF400612F48FFF7D0F9062121
:101420000020FFF7C2FF00210220FFF7BEFF2321AB
:101430000320FFF7BAFF00210420FFF7B6FF00BF2B
:101440002648006810F4805FFAD14FF4006122480A
:10145000FFF7B7F9F020FFF75AFF00BF1F480068F9
:1014600010F4805FFAD14FF400611B48FFF7A7F931
:1014700010BD70B50546002400BF1848006810F480
:10148000805FFAD129460120FFF78FFF4FF40061FA
:101490001148FFF796F9FC20FFF739FF0020FFF70E
:1014A00036FF0120FFF733FFFFF75CFF44EA0044FB
:1014B000FFF758FF44EA0024FFF754FF04434FF4BA
:1014C00000610548FFF77BF9B4F5000F01D3A4F1E3
:1014D0008074204670BD0000000C0140080C0140E3
:1014E000704700000FB4044910B503AA029800F039
:1014F0009FFA10BC5DF814FB080000202DE9F05F96
:101500004FF0000B044689464FF0010AC0F820B0A6
:101510002046E168884798B3252806D0D4E9012100
:101520009047206A401C2062F2E7E16820460026CE
:101530008847C4F81CB005460027C4F818B02A2D07
:101540000DD05246A5F130010A292ED2BAF1000F72
:101550002BD0924604EB8708C8F818101AE059F807
:10156000041B204604EB87029161E1688847012F44
:1015700005461CD1E069002824DA26F0200621E087
:1015800048E0D8F8180000EB800005EB4000303848
:10159000C8F818002046E1688847A0F130010546E8
:1015A0000A2902D2BAF1000FEBD1012F0AD02E2D59
:1015B00008D12046E16888477F1C0546022F46F087
:1015C0002006BCDBA069002803DA404246F0010691
:1015D000A061F00701D026F01006DDB1A5F14100B1
:1015E000192802D8203546F400664A462946204686
:1015F00026604E46FEF7B4FD50B1012805D0F61D19
:1016000026F0070000F1080982E706F104097FE7E8
:10161000284683E7206ABDE8F09F7047704770470F
:10162000704770472DE9FF4F0C461E464FF0FF37BD
:1016300089B0D2E90001DDF8588006908946C1F3EF
:101640000A5505B93D46002108464FF00000B9F1A2
:10165000000F00F4400005DA00EB80004FF4400179
:1016600001EA50004FEA905ABAF1010F00DDBA4684
:10167000069850EA49002CD044F61050A5F2FF35E8
:101680004543CAF1000008902F14B8F1000F39D07B
:101690007542089A291E00DC524600DA694203A806
:1016A00000F07AFA0699484600F06EFB8DE80700D4
:1016B000A0F500501F3800900398002D25DD42F260
:1016C0001F015246084403A90390684600F0CDFD6F
:1016D00024E0B8F1010F4FF0000001D1F24307E020
:1016E000302101E02154401CB042FBDB3046002297
:1016F000002121540999C1F80880C1E900200DB0EA
:10170000BDE8F08FBD1B6D1CC3E7A0F5005052462D
:101710001F3803A90390684600F0BBFD8DE8070061
:101720000004000C03D04FF0FF30410800E01046E9
:10173000B8F1000F03D00022009215461FE0751E7D
:1017400006D400F08DF902F1300262556D1EF8D515
:10175000B3460122084302D000227F1C04E0207817
:10176000302801D100227F1E002A07978DD01DE06E
:10177000112D07DA00F074F9303262556D1C50EA11
:101780000102F5D108430FD10021681E05E0235C5A
:10179000625C6354491C2254401E8142F7DBAB4615
:1017A000A81B401E079001E0009848B1002004F8F3
:1017B0000B000998079AC0F80880C0E9002B9EE743
:1017C00011264FF0000860E72DE9F04F88460446E7
:1017D000D21D22F0070191B0D1E90001CDE90C0141
:1017E00000F08DFE02460D98C10F4FF02D0006D17E
:1017F00021682B208B0702D4202000EAC100032A95
:10180000834601D0072A05DB03464146204600F007
:1018100085F90AE12068800601D5E76900E006271E
:101820001120B8F1650F06D0B8F1660F11D0B8F1EC
:10183000670F67D128E00023112F009300DA781C8E
:1018400003460CAA01A909A8FFF7ECFE00267D1C9F
:101850003FE001234FF000490CAA01A909A8009319
:101860003B46FFF7DFFEDDE90A50002620B9099963
:1018700007F1010001EB0005781B02D47D1CC0F1CB
:10188000FF36A5EB070A3DE0012F00DA0127002310
:10189000112F009300DC384603460CAA01A909A8C1
:1018A000FFF7C0FE20683D46002600070BD40A98CB
:1018B000A84200DA054601A8012D04DD411911F8FE
:1018C000011C302909D00998B84202DA10F1040F3E
:1018D00005DA4FF0010A099813E06D1EECE70028C5
:1018E00002DC2D1A064405E0401CA84202DD099DD9
:1018F00005F101050998A0EB060000F1010A4FF07F
:10190000004081462068000703D4AA4501DB4FF060
:10191000FF3A0020B9F1004F0DF13F078DF83F006D
:1019200024D04FF002082B20B9F1000F00900BDA01
:101930002D20C9F10009009006E0484600F0A6F904
:101940003031814607F8011DB8F10001A8F1010806
:10195000F3DCB9F1000FF0D1009807F8010D216810
:101960004520090500D4652007F8010D0EA8A0EB5D
:10197000070000F107085FEA0B0000D0012000EB30
:10198000050101EBEA7101EB0800A169A1EB000080
:10199000A0F10100A0612068C00602D42046AFF388
:1019A00000805FEA0B0006D0D4E901219047206A4D
:1019B00000F1010020622068C00621D52046AFF367
:1019C00000801DE0002E05DB0A98B04202DD01A870
:1019D000805D00E03020D4E901219047206A761C28
:1019E000401CBAF1010A20620AD100F033F8C06845
:1019F0000168405CD4E901219047206A401C2062C4
:101A0000281EA5F10105DDDC07E0D4E9012117F866
:101A1000010B9047206A401C2062B8F10001A8F138
:101A20000108F2DC2046AFF30080022011B067E627
:101A3000074B70B50C467B4400F05DF80546204628
:101A400000F020F910B14FF0FF3070BD284670BD96
:101A500069E8FFFF01487047704700BF540000204D
:101A600030B5B0F10A024FEA900E71F100034EEA70
:101A7000817EB0EB0E0061EB91014FEA101E4EEA41
:101A8000017E10EB0E0041EB11114FEA102E4EEAD1
:101A9000016E10EB0E0041EB11214FEA104E4EEAA1
:101AA000014E10EB0E0041EB1141401841F10001D5
:101AB0004FEAD00040EA41704FEAD10110EB8005B7
:101AC0004FEA810444EA907444EB01046D1944EB3D
:101AD0000404521BA3414FF0000348BF0A3200D553
:101AE00030BD401C41F1000130BD000001694A1CBD
:101AF00002610878704700B58FB0CDE9013100214F
:101B0000059105497944CDE9031011466846FFF770
:101B1000F5FC0FB000BD0000E5FFFFFF2DE9F0412F
:101B200004461F4603260168072A01F4006003DB10
:101B300015A520B915A502E015A500B915A521F038
:101B400010002060A069C01EA0610FB1401EA061FE
:101B50002046AFF300804FB1D4E9012138469047C9
:101B6000206A401C2062C01C206206E0206AFAE75E
:101B7000D4E9012115F8010B9047761EF8D22046D2
:101B8000AFF30080BDE8F0814E414E006E616E0003
:101B9000494E4600696E66002DE9F04781461646BB
:101BA0008AB037487844D0E9002380680092CDE9B4
:101BB0000130334878440C38D0E90223006903929D
:101BC000CDE9043041F69B334FF0370001EB0302BF
:101BD000194492FBF0F591FBF0F2A5F1800500FBB2
:101BE00012141B3C02D56442012000E00020DFF803
:101BF00090A080460027FA44AAF1CE0A0DE0E00743
:101C000009D03246684607EB47010AEB810100F034
:101C100040FB8DE8070064107F1C002CEFD1184FAB
:101C20007F44BC3F17E0E80713D007EB04100DF129
:101C3000180A90E80E00AAE80E00C068F04201D130
:101C400098190890324606A903A800F022FB03ABBE
:101C500007C36D10641C002DE5D132466946B8F10A
:101C6000000F03A802D000F000FB01E000F011FB20
:101C7000C9E90001C9F808200AB0BDE8F0870000F2
:101C8000B40D0000C06800F0800070474FF00A01FA
:101C9000B0FBF1F202FB110110467047004870479B
:101CA000340000207546FFF7F9FFAE46050069468F
:101CB000534620F00700854618B020B5FFF706FA16
:101CC000BDE820404FF000064FF000074FF000083D
:101CD0004FF0000B21F00701AC46ACE8C009ACE8BE
:101CE000C009ACE8C009ACE8C0098D46704704469D
:101CF000AFF300802046FEF74FFA00004FF0013CA2
:101D000050F8042B51F8043B9A4221D1A2EB0C036A
:101D1000934313EACC1317D150F8042B51F8043B2A
:101D20009A4215D1A2EB0C03934313EACC130BD1C7
:101D300050F8042B51F8043B9A4209D1A2EB0C0352
:101D4000934313EACC13DBD04FF00000704700BF81
:101D5000D01A01BAB1FA81F101F0180122FA01F0AA
:101D6000CB40C1F12001DBB2C0B2C01A2CFA01F3A2
:101D7000D11A914311EAC311E6D170470148704767
:101D8000704700BF380000205FEA400C08BF91F0A8
:101D9000000F4FEA8C234FEAC12243EA51514FEA28
:101DA0001C5018BF00F5F0404FEA300018BF41F05A
:101DB00000415FEA6C5C00F02980BCF1FF3F08BF86
:101DC00040F080407047130C06BF12044FF0100C17
:101DD0004FF0000C130E04BF12020CF1080C130F8D
:101DE00004BF12010CF1040C930F04BF92000CF11C
:101DF000020CD30F04BF52000CF1010C11464FF03E
:101E00000002A0F11F00A0EB0C00704711F0004F82
:101E100008BF704731F000413FF4D5AF0B0C06BF4F
:101E200009044FF0100C4FF0000C0B0E04BF090218
:101E30000CF1080C0B0F04BF09010CF1040C8B0F03
:101E400004BF89000CF1020CCB0F04BF49000CF158
:101E5000010CCCF12003A0EB0C0022FA03F302FAF0
:101E60000CF241EA030100F10100704720F07F4CC1
:101E700080EA030023F07F47ACEB070303F57C53B4
:101E800000F0004003F1FF032DE980494FEA154BB4
:101E900009B44FEA144325EA0B4E24EA03480FF233
:101EA000042606EB132749083E785FEA320203FB5B
:101EB0000667C7F5000707FB06F64FEA54374FEAF7
:101EC000D64606F1020607FB066CCCF1005C4FEA31
:101ED0001C472CEA074C07FB06F40CFB06F504EB49
:101EE00015464FEA961634BF00204FF000404FEAE7
:101EF000D13706FB07FC4FEA1C4C0CFB0BF7D21B3F
:101F000003FB0CF761EB07010CFB0EF7B0EB07408E
:101F100072EB17420CFB08F734BFA2EB0742B2EB9F
:101F2000074261EB17414FEA0C444FEA910706FB69
:101F300007FC4FEA1C4C0CFB0BF7B0EBC74072EBF5
:101F4000573203FB0CF734BFA2EBC742B2EBC742D8
:101F500061EB57310CFB0EF7B0EBC70072EB577219
:101F60000CFB08F734BFA2EBC702B2EBC70261EB70
:101F70005771039F4FEA816141EA921104EBCC044F
:101F80004FEAD1374FEA826206FB07FC42EA901221
:101F90004FEA80604FEA1C4C0CFB0BF7D21B03FB93
:101FA0000CF761EB07010CFB0EF7B0EB074072EB8F
:101FB00017420CFB08F734BFA2EB0742B2EB074213
:101FC00061EB17414FEA8C554FEA910704EB9C24D3
:101FD00006FB07FC4FEA1C4C0CFB0BF7B0EBC740B1
:101FE00072EB573203FB0CF734BFA2EBC742B2EBE4
:101FF000C74261EB57310CFB0EF7B0EBC70072EB39
:1020000057720CFB08F734BFA2EBC702B2EBC70252
:1020100061EB577115EB4C254FEA816141EA921152
:102020004FEA82624FEAD13742EA901206FB07FC80
:1020300044F100044FEA80604FEA1C4C0CFB0BF7A4
:10204000D21B03FB0CF761EB07010CFB0EF7B0EBA7
:10205000074072EB17420CFB08F734BFA2EB0742B4
:10206000B2EB074261EB174115EB1C154FEA8131CA
:1020700041EA92414FEA823242EA90424FEA80308E
:102080004FEA0C7644F1000448EA03434EEA0B4859
:102090004FF0000EB2EB080C71EB030724BF624651
:1020A00039464EEB0E0E4FF0000B001852414941DD
:1020B0004BEB0B0BB2EB080C71EB03077BF1000B46
:1020C00024BF624639464EEB0E0E4FF0000B00184F
:1020D000524149414BEB0B0BB2EB080C71EB030780
:1020E0007BF1000B24BF624639464EEB0E0E51EADF
:1020F000020718BF46F0010616EB0E7655F10002F6
:1021000054F1000103D5BDE88901BDE80088BDE8B0
:102110008901BDE80048B619524141EB0101A3F124
:102120000103704780807F7E7D7C7B7A797877762B
:1021300076757473727171706F6E6E6D6C6C6B6AA4
:102140006A69686867666665646463636261616042
:10215000605F5F5E5E5D5D5C5C5B5B5A5A595958BF
:102160005857575656555555545453535252525129
:10217000515050504F4F4F4E4E4D4D4D4C4C4C4B7F
:102180004B4B4A4A4A4949494848484747474746C6
:102190004646454545444444444343434342424202
:1021A00042414141002B26D4770021D01CB54FEA93
:1021B000370703B44FF010004FF010014FF000004C
:1021C0000FBCBDE810400BF1010BBBF1010F08BFC4
:1021D0005FEA170722BF12F1010211F101014FF06E
:1021E000004143F1000300F0004043EA0000704763
:1021F000F9D35708DAE746EA064613F1400F4FEAEB
:1022000016461FDD13F1200FDFBF16430A460021DB
:1022100020335B42C8D0C3F1200746EA064602FAE3
:1022200007F74FEA164646EA0706C3F1200722FAE7
:1022300003F201FA07F721FA03F14FF0000342EA33
:102240000702B1E746EA020646EA06464FEA1646A4
:1022500046EA0106BCBF46EA0646360C4FF00003CC
:102260004FF000024FF000019EE72DE9C048934671
:1022700030B491E8380007C831EA400C48BF34EA6E
:10228000430C03D5FFF7F2FDFFF78CFFF0BCBDE870
:1022900000882DE9C048934630B491E8380007C85B
:1022A00010F0804F08BF13F0804F03D100F005F805
:1022B000FFF778FFF0BCBDE8008820F07F4780EA98
:1022C000030023F07F4C07EB0C03A3F57C5300F0D5
:1022D0000040A3F1FE0392F0000F00F0B38095F0F0
:1022E000000F00F077802DE901494FEA11404FEAD5
:1022F000144621EA004800FB06FC24EA064708FBD6
:1023000006F607FB08F800FB07F718EB06484CEB4E
:10231000164C4FEA124B18EB07484FEA15464CEBA8
:10232000174022EA0B4E0BFB06FC25EA06470EFB84
:1023300006F607FB0EFE0BFB07F71EEB064E4CEBFB
:10234000164C4FF000061EEB074E4CEB174B18EBEC
:102350000B0840F1000018EB0E0B58EB000840F1A1
:1023600000008F1A4FF000013CBFC943661B14BF29
:10237000B5EB040C00213CBFC943F61B4FEA1744E0
:102380004EEA8E0E27EA04454FEA1C4704FB07621B
:102390002CEA074C05FB07F70CFB05F604FB0CFCCD
:1023A00016EB074642EB174216EB0C4642EB1C427B
:1023B0001BEB060658EB0202414146EA9E0601D598
:1023C000BDE80189B619524141EB0101A3F10103B6
:1023D000BDE801894FEA14454FEA114724EA054652
:1023E00021EA074C05FB07F406FB07F70CFB06F197
:1023F00005FB0CFC11EB074144EB17444FEA124775
:1024000011EB0C4144EB1C4422EA074C05FB07F29C
:1024100006FB07F70CFB06F605FB0CFC16EB074664
:1024200042EB174216EB0C4642EB1C456A1854F17E
:10243000000148BF7047B619524141EB0101A3F1B9
:102440000103704795F0000F37D04FEA11424FEA71
:10245000144721EA024624EA074C02FB07F106FB77
:1024600007F70CFB06F402FB0CFC14EB074441EBF2
:1024700017414FEA154714EB0C4441EB1C4125EA88
:10248000074C02FB07F506FB07F70CFB06F602FB01
:102490000CFC16EB074645EB174516EB0C4645EBD7
:1024A0001C42121951F1000148BF7047B619524140
:1024B00041EB0101A3F1010370474FEA14454FEAD4
:1024C000114724EA054621EA074C05FB07F106FB04
:1024D00007F70CFB06F24FF0000605FB0CFC12EBB5
:1024E000074241EB174112EB0C4251EB1C4148BF34
:1024F0007047921841EB0101A3F1010370474900B5
:1025000050EAC12018BF04204A0D18BF40F0010056
:1025100040F2FF72B2EB515F08BF40F002000128A9
:1025200008BF05207047000010B500290AD00878C0
:10253000002807D005487844FFF7E0FB002801D0C9
:10254000002010BD0248784410BD00005E04000069
:102550005604000021F00042A2F16052B2F5801F43
:1025600001F0004328BFD2F17F6C0BD95FEA001C59
:1025700043EAC20242EB507018BF704728BF20F0F8
:1025800001007047B2F5801FBCBF184670474FEA84
:10259000410C1CF5001F02D2084600F099B970B535
:1025A00000F0CAF800000089FFF7F6BF4FF00040C6
:1025B000A0F58000704710F0004248BF4042B0FADA
:1025C00080F310FA03F10AD0C3F11D0303F5806311
:1025D0004FEA415002EB035202EBD12170474FF01A
:1025E00000007047DFF848C170B51CEA111E1EBF1D
:1025F0001CEA13159EEA0C0F95EA0C0F00F06F8091
:1026000081EA030423EA4C134EEAD47E21EA4C11FA
:1026100041F4801143F48013AE44A1FB024CA0FBB3
:102620000365AEF17F7E361955EB0C05A1FB034C1B
:102630004CF10003A0FB021C16EB0C06654153F1A4
:102640000003094218BF46F0010613F4007F0BD1C6
:102650004FEA03314FEA0530340341EA155140EAAD
:1026600016506FF003020AE04FEAC3214FEAC5207B
:10267000F40241EA555140EA56506FF0020202EB73
:102680002E4201EB025585EACE710AD05FEA440C76
:1026900018BF24F0004450F1000041F1000120EA8D
:1026A000D47040F2FE7C624500D270BDA84214BFD7
:1026B0004FF080444FF04044002E08BF0024BEF18C
:1026C000806FA8BFA1F1C041BDE8704080F2828058
:1026D0004FF0000001F1C04101F0004170479EEA57
:1026E0000C0F0CEA131518BF95EA0C0F06D04FF02B
:1026F000000081EA030E0EF0004170BD00F01CF8EE
:102700008900013E00F007B800F009B84FEA430C19
:102710005FEA5C5C08D081EA030100F05BB84FEA35
:10272000410C5FEA5C5CF6D14FF000000149704754
:102730000000FF070000F87F0EF1020E2EF0030EDE
:102740005EF8046B364205D4012A43EB030515F508
:10275000001F12D8012841EB010C1CF5001F0CD8FA
:102760000ED14FEAD17C15F5001F0CEB4C0C0CF18F
:10277000020C08BF4CEBD37C04E04FF0080C01E0E6
:102780004FEAD37C0CEB4C0526FA05F606F007065B
:10279000B6F1040C06D20EEB860CBDE870404CF08E
:1027A000010C6047DFE80CF0090B02024FF000411A
:1027B0004FF00000A1F5002170BD19461046012818
:1027C00051EB010418BFD4F5001484BF002001F0C0
:1027D000004170BD0808A0F500114FEA31017047B3
:1027E00043004FEAD30C4FEA3C0C43401FBF400765
:1027F0000CF1605113F0FE4F70471CF0006F03D1D5
:1028000000200CF0004170470CF0004343EA507088
:1028100010B540EACC0000F00EF800BF00000092B6
:102820004FEA0001FFF7D6BF4FF000414FF0000024
:10283000A1F5002170470EF1020E2EF0030E5EF896
:10284000044B244204D44FEA4102B2F17F4F11D825
:102850004FEA4003B3F17F4F0CD80ED14FEAD07C42
:10286000B2F17F4F0CEB4C0C0CF1020C08BF4CEB9F
:10287000D17C04E04FF0080C01E04FEAD17C0CEB76
:102880004C0324FA03F404F00704B4F1040C06D258
:102890000EEB840CBDE810404CF0010C6047DFE803
:1028A0000CF0070802024FF00040A0F5800010BDB8
:1028B0000846420018BFD2F1807288BF00F0004085
:1028C00010BD10B5FFF75AFA4FF00001016010BDBE
:1028D000FF2141EAD050C0057047FEF775BF0000E8
:1028E00002400000000000A00000000005400000C1
:1028F000000000C8000000000C4000000000409CE8
:1029000000000000194000000020BCBE00000000D4
:1029100034400000BFC91B8E00000004B540000019
:10292000504BCFD06607E2CF010000006C410000A1
:102930003E8251AADFEEA73401000000D942000018
:10294000DCB5A0E23A301F97FFFFFFFFB44500005F
:10295000FD25A0C8E9A3C14FFFFFFFFFFF3F000017
:102960000000008000000000FF3F00000000008029
:1029700000000000B0290008000000203400000022
:1029800028010008E4290008340000206406000043
:10299000440100081C00000043000000F8FFFFFF96
:1029A0000C0000000E0000000F0000002E000000D0
:1029B0000000000000000000000000000000000017
:1029C00001020304010203040607080902040608C1
:1029D00000A24A04000000000000000001020304FD
:0429E00006070809D5
:04000005080000ED02
:00000001FF
