:1004CD00E4FDFCC3ED9FEC9E5015E4FBFA0BBB0065
:0F04DD00010AEB64734A70F50DBD00010C80E459
:0104EC0022ED
:0F04A0008FA07F017E001204AFD2807F017E000B
:1004AF00D3EF9400EE940040147D787C00ED1D7026
:0D04BF00011CED4C70F7EF1F70E61E80E38E
:0104CC00220D
:08058200C2821204A0C2802213
:08058A00D2821204A0C28022FB
:030569002430FD3E
:0A056C00AB05120582AF0302058AF9
:0603EF008C108D11AA071D
:1003F500AE10AF117C037DE81201C8AB07AE10AF9C
:10040500117C007D641201C87C007D0A1201C88D33
:1004150012AE10AF117C007D0A1201C87C007D0A66
:100425001201C88D13AE10AF117C007D0A1201C8F0
:10043500A905AF02EB120569EA04FF7D2E12056CD2
:10044500EA2402FFE512120569EA2403FFE51324F5
:1004550030FD12056CEA2404FFE92430FD02056C29
:1004ED00C280C2817F381205827F0E1205827F067F
:0D04FD001205827F011205827F80020582B8
:100254007F327E001204CD1204651204ED7F081271
:1002640003408F0B8E0A8D098C08EC1201097B3C2C
:100274007ADA791B783A1200038F0F8E0E8D0D8C6B
:100284000C120147AD07AC067F801203EF7F647E3A
:10029400001204AF7F181203408F0B8E0A8D098C55
:1002A40008EC1201097B3C7ADA791B783A120003D4
:1002B4008F0F8E0E8D0D8C0C120147AD07AC067F8F
:1002C400871203EF7F647E001204AF7F2312034082
:1002D4008F0B8E0A8D098C08EC1201097B3C7ADAAB
:1002E400791B783A1200038F0F8E0E8D0D8C0C1231
:1002F4000147AD07AC067FC01203EF7F647E001296
:1003040004AF7F381203408F0B8E0A8D098C08ECE2
:100314001201097B3C7ADA791B783A1200038F0FB9
:100324008E0E8D0D8C0C120147AD07AC067FC712E3
:0C03340003EF7FE87E031204CD0202619B
:0E055A00E4FFFE0FBF00010EEF64144E70F5BB
:010568002270
:10054100E4FEEF30E704D2938002C293D292EF250A
:08055100E0FFC2920EBE08EAB1
:01055900227F
:10050A00E4FDFCD29212055AED25E0FDC292309428
:0B051A00010D12055A0CBC08EAAF05E9
:0105250022B3
:10052600C2962095FDEF540F4450FF120541E4FF9B
:0B053600120541AF05120541D29622CC
:100465002095FDC2967FF01205412095FDD2967D1F
:1004750006E4FF120526E4FD7F021205267D237F93
:1004850003120526E4FD7F041205262095FDC2967C
:0B0495007FF01205412095FDD2962259
:02034000AB0709
:10034200E4F513F512F511F510F517F516F515F597
:10035200142095FDAD037F01120526C2967FFC1283
:100362000541E4FF1205412095FD7F011205417F01
:10037200017E001204AFE4FBAF13AE12AD11AC105C
:1003820078081202418F138E128D118C1012050AF9
:10039200E48F17F516F515F514E5134FF513E5126D
:1003A2004516F512E5114515F511E5104514F51040
:1003B2000BBB03C4D2967FFF7EFF7D7F7C00AB1315
:1003C200AA12A911A810D312022B4018E513940007
:1003D200F513E5129400F512E5119400F511E510FC
:0C03E2009401F510AF13AE12AD11AC1079
:0103EE0022EC
:10000300EC4D6011E8497017ED33EC3304600DE4F7
:10001300FCFFFEFD22E933E8330470F80201B3125A
:10002300017E58046009E4CC24815006285009025B
:1000330001BD2840030201BAC0E0EB4A7044B98015
:1000430006D0E0FB0201A9EF4E701CBD8008EBFF58
:10005300EAFEE9FD80EBE98DF0A4FEE5F00200EC99
:10006300E9CDF9EAFEEBFFEF89F0A4FCE5F0CE89D8
:10007300F0A42EFFE435F0CD89F0A42DFEE435F095
:100083008067EF4E7005BD80D780C3EF8BF0A4ACC3
:10009300F0EE8BF0A42CFCE435F0F8EF8AF0A42CFE
:1000A300E5F038FCE433CB8DF0A42CFCE5F03BF811
:1000B300EE8AF0A42CFCE5F038F8E433CF89F0A401
:1000C3002CFCE5F038CF3400CE89F0A42FFFE5F007
:1000D3003EFEE433C98DF0A42EFEE5F039CD8AF05F
:1000E300A42FFFE5F03EFEE43DFD33D0E0FB5007D7
:1000F3000BBB000F0201BDEC2CFCEF33FFEE33FE14
:06010300ED33FD02019541
:1001090075F020800E75F010800575F0087D007E71
:10011900007F003392D530D50312021DEC33401015
:10012900EF33FFEE33FEED33FDEC33FCD5F0ED227A
:0E013900E5F0247EA2D513CC92E7CDCEFF22B6
:10014700EDD2E7CD33EC3392D524814006E4FFFEB0
:10015700FDFC22FCE4CFCECDCC24E0501174FF800F
:10016700EDC3CC13CCCD13CDCE13CECF13CF0470AC
:07017700F030D5DE02021D8D
:10017E00E9D2E7C933E833F892D5EDD2E7CD33ECC7
:07018E0033FC5002B2D52240
:10019500EC30E7100FBF000C0EBE00080DBD0004CB
:1001A5000BEB6014A2D5EB13FCED92E7FD2274FF77
:1001B500FCFDFEFF22E480F8A2D574FF13FC7D80D0
:0301C500E480EFE4
:0300000002057680
:0C057600787FE4F6D8FD7581170202546E
:1001C800BC000BBE0029EF8DF084FFADF022E4CC1B
:1001D800F875F008EF2FFFEE33FEEC33FCEE9DECE4
:1001E800984005FCEE9DFE0FD5F0E9E4CEFD22ED2A
:1001F800F8F5F0EE8420D21CFEADF075F008EF2F74
:10020800FFED33FD4007985006D5F0F222C398FD64
:050218000FD5F0EA2201
:0E021D00C3E49FFFE49EFEE49DFDE49CFC22F2
:10022B00EB9FF5F0EA9E42F0E99D42F0EC6480C84A
:06023B0064809845F022EA
:10024100E8600FEFC333FFEE33FEED33FDEC33FC1B
:03025100D8F122BF
:00000001FF
